:020000040000fa
:10000000f0ff0320591c0500c3040400f72404007a
:10001000df560400737c040023bc040000000000d1
:10002000000000000000000000000000bf77030097
:100030004737040000000000bf77030075e90500a2
:10004000bf770300bf770300bf770300bf770300cc
:10005000bf770300bf770300bf770300bf770300bc
:10006000bf770300bf770300bf770300a5da050061
:10007000bf770300bf770300bf770300bf7703009c
:10008000bf770300bf770300bf770300bf7703008c
:10009000bf770300bf770300bf770300bf7703007c
:1000a000bf770300bf770300bf770300bf7703006c
:1000b000bf770300bf770300bf770300390d060049
:1000c000430d0600bf770300bf770300bf7703002f
:1000d000bf770300bf770300bf770300bf7703003c
:1000e000bf770300bf77030000000000000000009e
:1000f00000000000bf770300bf770300bf77030055
:10010000bf770300bf770300bf770300bf7703000b
:10011000bf770300bf770300e9870500e987050083
:10012000e9870500e9870500bf770300bf77030073
:10013000bf770300bf770300bf770300bf770300db
:10014000bf770300bf770300bf770300bf770300cb
:10015000bf770300bf770300bf770300bf770300bb
:10016000bf770300bf770300bf770300bf770300ab
:10017000bf770300bf770300bf770300bf7703009b
:10018000bf770300bf770300bf770300bf7703008b
:10019000bf7703004de10500bf770300bf77030081
:1001a000bf770300bf770300bf770300bf7703006b
:1001b000bf770300bf770300bf770300bf7703005b
:1001c000bf770300bf770300bf770300bf7703004b
:1001d000bf770300bf770300bf770300bf7703003b
:1001e000bf770300bf770300bf770300bf7703002b
:1001f000bf770300bf770300bf770300bf7703001b
:10020000bf770300bf770300bf770300bf7703000a
:10021000bf770300bf770300bf77030079da0500db
:10022000bf770300bf770300bf770300bf770300ea
:10023000bf770300bf770300bf770300bf770300da
:10024000bf770300bf770300bf770300bf770300ca
:10025000bf770300bf770300bf770300bf770300ba
:04026000bf77030061
:020000040000fa
:10026400f8b500bff8bc08bc9e4670479db30500b6
:10027400f8b500bff8bc08bc9e46704779b30500ca
:020000040000fa
:100284007c9f020001000000d00e05000100000068
:10029400cc0e0500010000000e0f05000100000057
:0802a400240f05000100000019
:020000040000fa
:1002ac00c0ff0300a83bce005949000001fe080026
:1002bc00030003004800030001fe080006000300d1
:1002cc004c00030001fe0800090003000c000300b1
:1002dc0006fe07004e4f42494e44000001fe10003e
:1002ec0090000300e600030001fe0000090003007b
:1002fc005400bd0f01fe000009000300340103008f
:10030c0001fe0000090003001b008d1d06fe060007
:10031c0051554f544500000001fe20000900030018
:10032c002100030006fe07004251554f54450000c2
:10033c0001fe2000090003002700a51706fe060099
:10034c00444546554e00000001fe20000900030004
:10035c0038015a0c01fe2000090003006200030062
:10036c0001fe2000090003006600030001fe2000ce
:10037c00090003006a00030001fe200009000300cd
:10038c003c013c0701fe2000090003003c00030077
:10039c0006fe06002a454f462a00000001fe4800d2
:1003ac00f50003004001030001fe4800ec000300cf
:1003bc004501030001fe08002b0103004a01030064
:1003cc0006fe04004e494c000bfe480003000300df
:1003dc0006fe0200540000000bfe4c000600030059
:1003ec000bfe0c00090003000bfee600c6490300df
:1003fc0006fe02002a0000000bfe5400120003004f
:10040c000bfe3401150051030bfe1b001800640099
:10041c000bfe21001e0003000bfe270024001b17ff
:10042c000bfe38012a00bd0106fe02002e00000062
:10043c000bfe62002d00bd1d06fe02002c0000000c
:10044c000bfe66003000471506fe03002c40000032
:10045c000bfe6a00330003000bfe3c013600370331
:10046c000bfe3c00390003000bfe40013f00030073
:10047c000bfe4501420080000bfe4a0145000300c3
:10048c000bfe9f01570103000bfea5015d01c21875
:10049c000bfea901630103000bfe69016601fd1b44
:1004ac000bfe6f016c0103000bfe75017201030062
:1004bc000bfead0178017e000bfe7e017b0103007b
:1004cc000bfeb10181016c000bfe870184016e09ea
:1004dc000bfe8d018a01030006fe03004946000055
:1004ec000afe5f00ff0002009400db030100000025
:1004fc0007fe10009e009606dd0fbf19cf26234481
:10050c0003000300030003000300030003000300c7
:10051c00030003000000000007fe40003c066809d1
:10052c00990c6c0e06122515fb46191c6606030069
:10053c00bf0c2e460a48493f2848bf1deb07f10a5d
:10054c007e38711046332917a81ae31d2427c438a6
:10055c00e546030060053b3f0300ff1d243e494573
:10056c00640efc116c34483c4a0564069409030083
:10057c005d10781368008a1a2846e507030003000b
:10058c006d10382d2717a61add1d030060294c0e9f
:10059c0099100315be1869217805d30100000000dd
:1005ac00000000000000000000000000000000003f
:1005bc00000000000000000000000000000000002f
:1005cc00000000000000000006fe64004d41435294
:1005dc004f455850414e442d414c4c2d46554e43a1
:1005ec0054494f4e530000525f00554e545f00006b
:1005fc0000000000000000000000000000000000ef
:10060c0000000000000000000000000000000000de
:10061c0000000000000000000000000000000000ce
:10062c0000000000000000000000000000000000be
:10063c00000000000000000006fe12002a2a535998
:10064c004d424f4c484153485441422a2a00000025
:10065c0002fe0000ffffffffffffffff02fe000096
:10066c00000000000000000002fe0000010000007d
:10067c000000000002fe000002000000000000006c
:10068c0002fe0000030000000000000002fe00005b
:10069c00040000000000000002fe00000500000045
:1006ac000000000002fe0000060000000000000038
:1006bc0002fe0000070000000000000002fe000027
:1006cc00080000000000000002fe0000090000000d
:1006dc000000000002fe00000a0000000000000004
:1006ec0002fe00000b0000000000000002fe0000f3
:1006fc000c0000000000000002fe00000d000000d5
:10070c000000000002fe00000e00000000000000cf
:10071c0002fe00000f0000000000000002fe0000be
:10072c00100000000000000002fe0000110000009c
:10073c000000000002fe000012000000000000009b
:10074c0002fe0000130000000000000002fe00008a
:10075c001400000000000000000000000000000079
:10076c00000000000000000000000000000000007d
:10077c0006fe0b002a2a424f54544f4d2a2a0000e1
:10078c0006fe09004445464d4143524f000000000f
:10079c0006fe090046554e4354494f4e00000000da
:1007ac0006fe0e005f48414e444c452d53495a45b8
:1007bc005f00000006fe0e005f4d494e534d414c4c
:1007cc004c4e554d5f00000006fe0e005f4d41582b
:1007dc00534d414c4c4e554d5f00000006fe1c0025
:1007ec00615f72656c65617365206e6f74206173f7
:1007fc007369676e65642c20762d310001fe48010b
:10080c004f0103009f01030002fe5d01ffffffff8c
:10081c00ffffff7f01fe68015a010300a5010300e1
:10082c0002fe6301000000000000008001fe680170
:10083c0060010300a901030001fe6001090003002f
:10084c006901030006fe05005452554500000000e6
:10085c0001fe6001090003006f01030006fe0600a3
:10086c0046414c534500000001fe600109000300a5
:10087c007501030006fe06005455504c450000005f
:10088c0001fe600109000300ad01030001fe6001df
:10089c00090003007e01030006fe07004c414d4297
:1008ac004441000001fe800109000300b101030076
:1008bc0001fe8001090003008701030006fe07000a
:1008cc0046554e415247000001fe800109000300cd
:1008dc008d013b1606fe05004556414c00000000fc
:1008ec0001fe8001090003008e00030001fe80015f
:1008fc00090003009601030006fe06004150504c0f
:10090c005900000001fe8001090003009c01030056
:10091c0006fe0600265245535400000006fe110048
:10092c005f53595354454d2d56455253494f4e5fc5
:10093c000000000006fe0a005f494e542d4d415840
:10094c005f00000006fe0a005f494e542d4d494ed3
:10095c005f00000006fe0c002a4c4f434154494fe7
:10096c004e532a0006fe0a00264f5054494f4e4162
:10097c004c0000000bfe8e00900182130bfe9601c2
:10098c009301af0c0bfe9c0199019d0c0bfe4502d3
:10099c00fd01bb200bfe4b02000203000bfe5002bc
:1009ac000302f51d0bfe5502874903000bfe59028d
:1009bc00f349e50a0bfe5e020c022b170bfe6202da
:1009cc00a2497a0e0bfe18021502d1010bfe690228
:1009dc00b149a50c0bfe6d02b44903000bfe71026c
:1009ec00ba4972000bfe77028a495c1f0bfe7d022e
:1009fc0084491d080bfe8402f04921150bfe890267
:100a0c0090497c1f0bfe8f029f494a000bfe9502fa
:100a1c009c49d9010bfe99023602c7010bfe9d02bf
:100a2c003902a21a0bfeaa0281495d030bfeb70222
:100a3c00ab495a0e0bfec402d84988000bfe1103b9
:100a4c00e449030006fe0400414e44000bfee9019c
:100a5c00cc02f70a06fe03004f5200000bfeed011c
:100a6c00cf02860006fe04004f5221000bfef1015e
:100a7c00d2024e0606fe0300444f00000bfef501a9
:100a8c00d50203000bfe1703d80203000bfe1b0359
:100a9c00db02f30101fe0002090003004502030022
:100aac0001fe0002090003004b02030001fe0002dc
:100abc00090003005002030001fe0002090022435a
:100acc0055021a4301fe1002090003005902683c4a
:100adc0001fe0002090003005e02030001fe100289
:100aec00ae1f03006202030004ff040006020300b1
:100afc009070110001fe00020900030018020300af
:100b0c0006fe0700474c4f42414c000001fe10020c
:100b1c00030003006902030001fe3002030003001e
:100b2c006d02030001fe300203000300710203009a
:100b3c0001fe3002030003007702030001fe3002c5
:100b4c00030003007d02030001fe300209000300d4
:100b5c008402030001fe300203000300890203003b
:100b6c0001fe3002030003008f02030001fe30027d
:100b7c00084903009502030001fe2002090003004e
:100b8c009902030001fe2802030003009d020300ea
:100b9c0001fe3002a2020300aa02030001fe500271
:100bac00af020300b702030001fe1000bc020300f9
:100bbc00c402030006fe12002a44594e414d49431b
:100bcc002d434c4f535552452a00000006fe0d0094
:100bdc00474c4f42414c2d524553455400000000a8
:100bec0006fe0d002a2a4c49535043414c4c2a2aec
:100bfc000000000006fe0a004641554c5445564183
:100c0c004c00000006fe0f004341544348494e542b
:100c1c00455252555054000006fe0b0043415443bc
:100c2c004844454d4f4e000006fe15005f45585494
:100c3c0045524e414c2d46554e4354494f4e535ff1
:100c4c000000000006fe0c005f414c4c4f43535417
:100c5c0041545f0006fe0c005f444542554747492e
:100c6c004e475f0006fe11005f54494d45522d461c
:100c7c00554e4354494f4e5f0000000006fe1400d1
:100c8c005f52454752455353494f4e2d4641494caf
:100c9c0045445f0006fe16005f52454752455353cc
:100cac00494f4e2d5245504f525445525f00000053
:100cbc0006fe0e005f5052494e5342554646455271
:100ccc005f00000006fe14005f524547495354452f
:100cdc005245442d4552524f52535f0006fe1300ad
:100cec0041465445522d524f4c4c494e2d464f5275
:100cfc004d53000006fe09005f53595354454d5f98
:100d0c000000000006fe0900524541444552464e83
:100d1c000000000006fe0f005f545950452d52454f
:100d2c0041444552535f000008fe200000001dffa7
:100d3c000100000003000300030003000100000099
:100d4c000000000078f0190006fe0e005f535444ba
:100d5c004f5554535445414d5f00000008fe200090
:100d6c0000001dff0100000003000300030003004e
:100d7c000100000000000000b0f0190006fe0f009a
:100d8c005f53544445525253545245414d5f0000f9
:100d9c0008fe2000000004ff010000000300030017
:100dac0003000300010000000000000040f01900e7
:100dbc0006fe0e005f535444494e53545245414d68
:100dcc005f00000001fed0020300030011030300ca
:100ddc0001fec00209000300e9015d0b01fec00227
:100dec0009000300ed01821501fec0020900030099
:100dfc00f101030001fec00209000300f50103002c
:100e0c0001fec002090003001703030001fec0022b
:100e1c00090003001b03030001fee00209000300ac
:100e2c001f03030001fee00209000300e4020300bb
:100e3c0006fe08002a524552554e2a0001fee002d9
:100e4c00090003006b03030001fee802a005030088
:100e5c006f03030001fef0022d0303007603030071
:100e6c0001fee002090003007a036b1601fee002aa
:100e7c0009000300f6027e0306fe0800494f5441a8
:100e8c002d2d2b0001fee00209000300c603830395
:100e9c0001fee00209000300cc03880301fe0003fd
:100eac0009000300d0038d0301fe000309000300b9
:100ebc000503920306fe07005245414c2d2b000002
:100ecc0001fe0003090003000b03970306fe070055
:100edc005349474e2d2b000001fe00000900030072
:100eec00d4039c0306fe11005f535444494e2d4419
:100efc00495341424c45445f0000000006fe0b0084
:100f0c002a2a2a534c4f472a2a2a000006fe090097
:100f1c0044495354494e43540000000006fe090056
:100f2c004f5054494f4e414c000000000bfe1f0324
:100f3c00de020a120bfee402e10284000bfe6b03dc
:100f4c00e70203000bfe6f03ea0203000bfe7603bd
:100f5c00e749030007fe0100660100000bfe7a035f
:100f6c00f00218250bfef602f30203000bfec6037b
:100f7c00f90203000bfecc03fc0203000bfed003b2
:100f8c00ff025e060bfe05030203c0180bfe0b03eb
:100f9c00080303000bfed4030e0303000bfedb035c
:100fac00d80303000bfea603de037c000bfee40358
:100fbc00e10303000bfeea03e70398130bfe200486
:100fcc00ed03fb1b0bfe2404f00303000bfe2804b3
:100fdc00f3031d1c0bfe7604f60303000bfe7c04ce
:100fec00f9031d0b0bfe8004fc03b5370bfe8404c8
:100ffc00ff03c6180bfe0504020403000bfe0b04d2
:10100c0008045c000bfe88040e0403000bfe8c0429
:10101c001104c10c0bfe9004140403000bfe6004bd
:10102c0017045f100bfe94041a04681a0bfe6f046d
:10103c001d04440e0bfe9d04e0048c000bfe2805e1
:10104c00e3047f200bfe2e05e604030006fe0b00d6
:10105c0053454c454354424f4459000006fe16007c
:10106c005f45585445524e414c2d505245444943ce
:10107c00415445535f00000006fe0a005f54525570
:10108c00454b45595f00000006fe0c004f53514c78
:10109c002d524553554c540017fe8303a6010000f6
:1010ac0000000000f60203000000000017fe880399
:1010bc00a701000000000000c6037e030000000032
:1010cc0017fe8d03a801000000000000cc03830371
:1010dc000000000017fe9203a901000000000000b0
:1010ec00d00388030000000017fe9703aa0100003c
:1010fc000000000005038d030000000017fe9c0398
:10110c00ab010000000000000b0392030000000084
:10111c0017fea103ac01000000000000d4039703ec
:10112c000000000017fea603ad0100000000000047
:10113c00db039c030000000006fe0f0056454354e1
:10114c004f5254494d45532d2d2b000017feb00323
:10115c00ae01000000000000a603a1030000000087
:10116c0017feb503af01000000000000e403ab0361
:10117c000000000017feba03b001000000000000e0
:10118c00ea03b0030000000017febf03b10100002a
:10119c00000000002004b5030000000017fe000052
:1011ac00b2010000000000002404ba03000000009b
:1011bc00000000000000000006fe11004e415455d6
:1011cc0052414c2d4e554d424552532b00000000c0
:1011dc0006fe0b004953494e54454745522d00001d
:1011ec0006fe0a00494e54454745522d2b0000007f
:1011fc0006fe0900504f5745522b2d2d00000000c4
:10120c0001fec00309000300db03a10306fe060078
:10121c004142532d2b00000001fee00309000300a6
:10122c00a603ab0301fee00309000300e403b003d3
:10123c0006fe0800565245462d2d2b0001fee003fc
:10124c0009000300ea03b50306fe080056524546a2
:10125c002d2b2b0001fee003090003002004ba0330
:10126c0001fee003090003002404bf0301fee003b8
:10127c000900030028042e0401fee003090003000a
:10128c007604330401fee003090003007c043804f7
:10129c0001fee0030900030080043d0401fe00048c
:1012ac00090003008404420401fe00040900030049
:1012bc000504470406fe0800455155414c2b2d00f2
:1012cc0001fe0004090003000b044c0406fe080098
:1012dc00455155414c2d2b0001fe00040900030023
:1012ec008804510401fe0004090003008c04560418
:1012fc0001fe00040900030090045b0401fe0004dd
:10130c00090003006004650401fe000409000300e9
:10131c0094046a0401fe0000090003006f049804a1
:10132c0006fe0a005a2d565245462d2d2b00000064
:10133c0006fe0a005a2d565245462d2b2b00000056
:10134c0006fe1200434f4e5354525543542d5645ee
:10135c0043544f524300000017fe3304b301000006
:10136c00000000002804bf030000000017fe380432
:10137c00b40100000000000076042e040000000000
:10138c0017fe3d04b5010000000000007c0433048e
:10139c000000000017fe4204b6010000000000002f
:1013ac00800438040000000017fe4704b701000059
:1013bc000000000084043d040000000017fe4c04f3
:1013cc00b801000000000000050442040000000009
:1013dc0017fe5104b9010000000000000b04470483
:1013ec000000000017fe5604ba01000000000000c7
:1013fc0088044c040000000017fe5b04bb010000d5
:10140c00000000008c0451040000000017fe600472
:10141c00bc01000000000000900456040000000015
:10142c0006fe0e004d494e4b4f57534b492d2d2d5b
:10143c002b00000017fe6a04bd0100000000000034
:10144c0060045b040000000017fe6f04be01000086
:10145c0000000000940465040000000006fe0d006e
:10146c004d4150564543544f522d2d2b000000003a
:10147c00000000000000000006fe1100434f4e5318
:10148c0054525543542d5455504c454300000000c4
:10149c0006fe0a00434f4e4341542d2d2b000000f5
:1014ac0006fe0a00434f4e4341542d2b2d000000e5
:1014bc0006fe0a00434f4e4341542b2d2d000000d5
:1014cc0006fe0b004449564944452d2d2b2b00009c
:1014dc0006fe0b004d4c484153482d2d2d2b000082
:1014ec0006fe0a004555434c49442d2d2b000000a7
:1014fc0006fe0b004d41584e4f524d2d2d2b00002a
:10150c0017fe9d04bf010000000000006f046a0478
:10151c000000000006fe0f0042494e4152592d5664
:10152c005245462d2b2b000017fea704c0010000ce
:10153c00000000009d0498040000000017feac049d
:10154c00c1010000000000002805a20400000000fa
:10155c0017feb104c2010000000000002e05a70414
:10156c000000000017feb604c301000000000000dc
:10157c00ec04ac040000000017febb04c401000026
:10158c0000000000f204b1040000000017fec004cb
:10159c00c501000000000000f804b60400000000c3
:1015ac0017fec504c601000000000000fe04bb04c9
:1015bc000000000017feca04c70100000000000074
:1015cc007a05c0040000000017fecf04cd01000016
:1015dc00000000007e05c5040000000006fe0e00a1
:1015ec0052454d4f56452d4e554c4c2d2b00000061
:1015fc0017fed904ce01000000000000cf04ca047d
:10160c000000000006fe0f00455854524143542d73
:10161c00524f57532d2b000000000000000000001b
:10162c0001fee004090003009d04a20401fee00495
:10163c00090003002805a70401fee00409000300cb
:10164c002e05ac0401fee00409000300ec04b10417
:10165c0006fe0800434f554e542d2b0001fee004ae
:10166c0009000300f204b60406fe0800434f554e71
:10167c00542d2d0001fee00409000300f804bb0406
:10168c0006fe060053554d2d2b00000001fee00414
:10169c0009000300fe04c00406fe08005649535519
:1016ac004d2d2b0001fe0005090003007a05c50431
:1016bc0001fe0005090003007e05ca0401fe0005b9
:1016cc0009000300cf04d40401fe00050900030047
:1016dc00d904820501fe000509000300ca0587052f
:1016ec0001fe000509000300ce058c0501fe000576
:1016fc00090003009105960501fe00050900030091
:10170c00d2059b0501fe000509000300d605030068
:10171c0001fe000509000300da05030001fe2005a7
:10172c0009000300de05030001fe2005090003008b
:10173c00e205030001fe000009000300520503004e
:10174c0006fe130042494e4152592d53454354490c
:10175c004f4e2d2d2d2b000006fe0a004d414b4502
:10176c002d4241472d0000000bfeec04e904030060
:10177c000bfef204ef0403000bfef804f504aa09b7
:10178c000bfefe04fb04ac3d0bfe7a050105df01ec
:10179c000bfe7e050405dd010bfecf0407050329b6
:1017ac000bfed9040a05742d0bfeca050d050300aa
:1017bc000bfece05100503000bfe9105130503006f
:1017cc000bfed2051605941a0bfed60519050f1c37
:1017dc000bfeda051c0534050bfede051f05f011aa
:1017ec000bfee2052205030006fe0300493800004b
:1017fc000bfe52052505030006fe030055380000bc
:10180c000bfe5605e605901a06fe0400493136001b
:10181c000bfe5a05e905ed0706fe040055313600ae
:10182c000bfe5e05ec05091506fe0400493332007b
:10183c000bfe6205ef05030006fe04005533320073
:10184c000bfe6605f205124606fe0400493634000e
:10185c000bfe6a05f505460506fe0400463332000c
:10186c000bfe6e05f805030006fe04004636340038
:10187c000bfe7205fb05c31d0bfe0106fe050300e6
:10188c000bfe07060406fb1d06fe0c0053544154c8
:10189c00532d2b2b2b2b2b0006fe0c0053454354a6
:1018ac00494f4e2d2d2d2b0017fe8705cf01000023
:1018bc0000000000d904d4040000000017fe8c05c1
:1018cc00d001000000000000ca05820500000000e5
:1018dc0017fe9105d101000000000000ce05870520
:1018ec000000000006fe0d00484953544f4752417a
:1018fc004d2d2d2b0000000017fe9b05d201000082
:10190c000000000091058c050000000017fea005ea
:10191c00d301000000000000d20596050000000075
:10192c0017fea5054a0200000000000080069b057a
:10193c000000000006fe0e00524541442d43484174
:10194c0052434f444500000006fe0f004d454d4fdd
:10195c0052592d4633322d4e4557000006fe0e00cf
:10196c0046554e4354494f4e3a494d41580000009c
:10197c0006fe0d00535542535444454c50524544b9
:10198c000000000006fe0f004d414b452d47454e13
:10199c00455241544f52000006fe0e00465245532c
:1019ac00482d4e44415252415900000006fe0d0094
:1019bc00494e54455253454354494f4e0000000084
:1019cc00000000000000000006fe0b0056454354ca
:1019dc004f524f462d2b000006fe0c00494e2d5346
:1019ec00545245414d2d2b0006fe0b0057494e41dc
:1019fc0047472d2d2d2b000006fe09005f49415253
:101a0c005241595f0000000006fe09005f4641523a
:101a1c005241595f0000000006fe09005f4441522c
:101a2c005241595f0000000006fe09005f4341521d
:101a3c005241595f0000000001fee005090003005f
:101a4c005605030001fee005090003005a050300da
:101a5c0001fee005090003005e05030001fee00540
:101a6c00090003006205030001fee0050900030004
:101a7c006605030001fee005090003006a0503008a
:101a8c0001fee005090003006e05030001fee00500
:101a9c00090003007205030001fe000609000300a3
:101aac000106030006fe08004e4441525241590003
:101abc0001fe0006090003000706030006fe0800ed
:101acc002a4552524f522a0001fe0006090003001b
:101adc002e06030001fe0006090003007a0603002f
:101aec0001fe0006090003008006a00501fe0006a9
:101afc00090003003a06160604fe02001306120241
:101b0c00bd00000001fe00060900030088061c064b
:101b1c0004fefeff190616067a00000001fe2006e0
:101b2c00090003008c06220604fe02001f061c0698
:101b3c000a02000001fe200609000300c206280666
:101b4c0004fe000025062206f000000001fe000045
:101b5c0009000300c606c90606fe0b005f46554e7b
:101b6c004354494f4e5f00000bfe2e060a0603003d
:101b7c000bfe7a060d060b170bfe800610064903aa
:101b8c0006fe03000a0d000006fe04004d4f440043
:101b9c000bfe3a0613063e060bfe88061906400697
:101bac000bfe8c061f0603000bfec2062506320533
:101bbc000bfec6062b0642060bfe1107cc0644068e
:101bcc000bfe1507d206fb010bfe1907d8064806bb
:101bdc000bfea505de064a060bfee706e4065206da
:101bec0006fe04004c4f47000bfe5006ed060300aa
:101bfc000bfef606f30603000bfe2107fc0654064b
:101c0c000bfe2507020759030bfe0b0708075806a6
:101c1c000bfe75072d0762060bfe360733072842ad
:101c2c0006fe04004d4158000bfe60063f071831bc
:101c3c000bfe7907450703000bfe80074b07680670
:101c4c000bfeaa05510703000bfe870757076c060e
:101c5c000bfe8b075d0703000bfe8f07630703006a
:101c6c000bfe6c076907030006fe040053494e0087
:101c7c000bfe7206720770060bfedb07960703005d
:101c8c000bfe9f079c07030006fe12004841532dd4
:101c9c004241474745442d524553554c5400000092
:101cac0006fe1b0053414e4e2d53545245414d2db3
:101cbc00434c41535349465945522d2d2d2b000071
:101ccc0006fe0a00444546474c4f42414c0000007a
:101cdc0006fe1f0046554e4354494f4e3a4e444162
:101cec00525241592d454c454d54494d45532d4665
:101cfc00363400000000000007fe4000e746600e8e
:101d0c00f411d746ec18e1215c060134b50c840eb5
:101d1c005d2c4515861a311ce307ac093326691076
:101d2c00881f1a26a41a5d32d701ff0a4a0e6703d0
:101d3c00b613b818f51bb84203000d47bc28282170
:101d4c001b157d39561fce44d546f438df469b45ce
:101d5c003334052d9842e3461e460f355503901338
:101d6c0056425b286126701fb2243503753db213b1
:101d7c00b418673d22489e3df33303000000000079
:101d8c000000000000000000000000000000000047
:101d9c000000000000000000000000000000000037
:101dac00000000000000000006fe0c004552524fdf
:101dbc00522d5455504c450006fe060043444444f5
:101dcc005200000004fe01002b062806290000002a
:101ddc0001fec006090003001107cf0604fe040033
:101dec00cc06c9062601000001fec006090003004e
:101dfc001507d50604fe0000d206cf061100000020
:101e0c0001fec006090003001907db0604fe0200f0
:101e1c00d806d5064201000001fee00609000300c9
:101e2c00a505e10604fe0100de06db0665010000e7
:101e3c0001fee00609000300e706ea0606fe0600be
:101e4c00504f50454e00000004fe0100e406e10630
:101e5c008601000001fee006090003005006f006b2
:101e6c0004fe0200ed06ea069501000001fee00604
:101e7c0009000300f606f90606fe07004249542d38
:101e8c003c3c000004fe0200f306f0062c010000ae
:101e9c0001fee006090003002107ff0604fe030013
:101eac00fc06f9062302000001fe000709000300ee
:101ebc002507050704fe01000207ff061a020000b1
:101ecc0001fe0007090003000b070e0706fe0800c1
:101edc00434c52484153480004fe010008070507d3
:101eec00ae00000006fe0b0043414e2d554e5041f6
:101efc00434b000006fe0a004841524452455345ec
:101f0c005400000006fe190046554e4354494f4eee
:101f1c003a4d454d4f52592d5531362d5652454659
:101f2c000000000006fe0c004d415046554e435437
:101f3c00494f4e0006fe1a0046554e4354494f4e2b
:101f4c003a4e4441525241592d535152542d46361a
:101f5c003400000001fe200709000300750730075c
:101f6c0004fe02002d070e072e02000001fe2007c2
:101f7c00090003003607390706fe070041532d48b8
:101f8c004558000004fe010033073007280100000b
:101f9c0004fefeff360039070900000001fe400771
:101fac00090003006006420704feffff3f073c07e1
:101fbc00c000000001fe4007090003007907480734
:101fcc0004fe0200450742070202000001fe400722
:101fdc000900030080074e0704fe05004b07480765
:101fec00cc01000001fe400709000300aa055407bc
:101ffc0004fe010051074e075201000001fe40078c
:10200c000900030087075a0704fe0100570754070d
:10201c009800000001fe6007090003008b076007b1
:10202c0004fe01005d075a070b01000001fe60076a
:10203c00090003008f07660704fe010063076007b1
:10204c00dc01000001fe6007090003006c076f074c
:10205c0006fe0500434f4e4a0000000004fe01003e
:10206c0069076607f001000001fe0000090003008b
:10207c007206930706fe0b0053455249414c2d52f4
:10208c005453000006fe170046554e4354494f4e1c
:10209c003a4e4441525241592d5656524546000033
:1020ac0006fe170046554e4354494f4e3a57494e7b
:1020bc004147472d414354494f4e000006fe0c004a
:1020cc00564543544f522d534f52540006fe0900af
:1020dc005452414345414c4c0000000006fe0c009c
:1020ec00494e49542d4941525241590004fe0100b8
:1020fc0072076f078e01000001fe800709000300c4
:10210c00db07990704fefeff96079307f300000018
:10211c0001fe8007090003009f07a20706fe0500c9
:10212c00504149520000000004fe02009c07990730
:10213c005d00000001fea00709000300a807ab0723
:10214c0006fe06004d494e555300000004fe0100ea
:10215c00a507a207bb00000001fea00709000300b1
:10216c002908b10704fe0100ae07ab070601000009
:10217c0001fea00709000300af05420704ff02009f
:10218c00b407b107b0d50e0001fea007090003008b
:10219c00e707bd0704fe0200ba07b707bc00000042
:1021ac0001fec007090003002d08c30704fe02004e
:1021bc00c007bd077501000001fec0070900030040
:1021cc003108c90704fe0300c607c307500100000d
:1021dc0001fec007090003003908cf0704feffff0a
:1021ec00cc07c9070700000001fec0070900030067
:1021fc003d08d50704fe0100d207cf0709010000f6
:10220c0001fe0000090003004308470806fe110008
:10221c004558504f4e454e5449414c2d504f4c4c07
:10222c00000000000bfea807a50778060bfe290886
:10223c00ae0797450bfeaf05b407e90706fe020093
:10224c002f0000000bfee707ba0703000bfe2d085a
:10225c00c007ef070bfe3108c607f1070bfe390864
:10226c00cc0703000bfe3d08d207f3070bfe430817
:10227c00d80703000bfeb4054a0876050bfe53087d
:10228c005008f5070bfeb905590829030bfe8f08fa
:10229c005f086c050bfe97086508fb070bfe9e0894
:1022ac006b08fd070bfe7408710803000bfe7d081c
:1022bc007a0801080bfebe05830807080bfe8c0884
:1022cc00890809080bfeea08a5080d0806fe04009b
:1022dc00414253000bfe0b08ab0803000bfec30579
:1022ec00b10811080bfeee08b708030006fe030048
:1022fc003c3d00000bfe1308bd0803000bfef30869
:10230c00c30803000bfecc08c90803000bfef7083a
:10231c00d20884260bfefc08d8081f080bfe040903
:10232c00de0821080bfee708e4088a400bfe500982
:10233c000b0925080bfe5709110903000bfe5b095d
:10234c0017094a2e06fe0a0049532d43414c4c45b1
:10235c004400000006fe0b00524541442d425954e6
:10236c004553000006fe190046554e4354494f4e46
:10237c003a4d454d4f52592d4633322d5345544607
:10238c000000000006fe0b00494e5446554e4341da
:10239c004c4c000006fe1100434c4f535552452d3a
:1023ac0046554e4354494f4e0000000006fe0c00ab
:1023bc004d414b452d42494e4152590004fe0100fe
:1023cc00d807d5071801000001fe400809000300da
:1023dc00b4054d0804fe04004a084708200200001a
:1023ec0001fe4008090003005308560806fe0800c9
:1023fc00524f4c4c4f55540004fe010050084d08f0
:10240c007d01000001fe400809000300b9055c08cd
:10241c0004fe030059085608e200000001fe6008a3
:10242c00090003008f08620804fe03005f085c08c3
:10243c004901000001fe60080900030097086808c4
:10244c0004fe0200650862083c01000001fe600801
:10245c00090003009e086e0804fe01006b08680862
:10246c00d400000001fe600809000300740877081e
:10247c0006fe0800535452494e473d0004fe02002c
:10248c0071086e086300000001fe6008090003007b
:10249c007d08800806fe07004d4b4c495354000044
:1024ac0004fe01007a0877083900000001fe80085c
:1024bc0009000300be05860804fe0200830880089c
:1024cc000902000001fe8008090003008c08a20824
:1024dc0006fe06004154414e3200000006fe190073
:1024ec0046554e4354494f4e3a4d454d4f52592d3a
:1024fc004933322d534554460000000006fe1800a7
:10250c0046554e4354494f4e3a4d454d4f52592d19
:10251c0055382d565245460006fe0c004552524f7a
:10252c00524e554d4245520004fe02008908860861
:10253c009101000001fea00809000300ea08a808a8
:10254c0004fe0100a508a2086100000001fea0081d
:10255c00090003000b08ae0804fe0100ab08a80834
:10256c00bf00000001fea00809000300c305b40869
:10257c0004fe0200b108ae085800000001fea008dd
:10258c0009000300ee08ba0804fe0000b708b408fe
:10259c001f00000001fec008090003001308c0085a
:1025ac0004fe0200bd08ba08b700000001fec00816
:1025bc0009000300f308c60804fe0200c308c008a3
:1025cc00fc00000001fec00809000300cc08cf0885
:1025dc0006fe07004d4150444952000004fe020023
:1025ec00c908c6088301000001fec00809000300e9
:1025fc00f708d50804fe0100d208cf0856010000e8
:10260c0001fec00809000300fc08db0804fe0300ff
:10261c00d808d5084c01000001fee00809000300b1
:10262c000409e10804fe0200de08db08fe000000dd
:10263c0001fee00809000300e708080906fe070090
:10264c00474554424d50000006fe09004348415294
:10265c002d494e540000000006fe0f00434f4d5014
:10266c00494c45522d5354415453000006fe0c0066
:10267c004d4150535441434b464e530006fe0e0001
:10268c004d454d4f52592d49382d4e4557000000a0
:10269c0006fe190046554e4354494f4e3a4d454d92
:1026ac004f52592d5533322d5345544600000000de
:1026bc0006fe090053455444454d4f4e00000000a2
:1026cc0004fe0100e408e1083601000001fe0009e7
:1026dc000900030050090e0904fe03000b09080948
:1026ec000602000001fe0009090003005709140945
:1026fc0004fe000011090e097200000001fe000921
:10270c00090003005b091a0904fe010017091409ea
:10271c00dc00000001fe200909000300610920090a
:10272c0004fefeff1d091a090100000001fe20092c
:10273c0009000300b009260904fe02002309200940
:10274c00eb01000001fe200909000300b4092c096b
:10275c0004fe0100290926097a01000001fe200966
:10276c0009000300b809320904fe01002f092c09e5
:10277c001d02000001fe200909000300c0093809f0
:10278c0004fe0200350932097101000001fe200926
:10279c00090003003e09410906fe07004e54484358
:1027ac004452000004fe02003b09380957000000a7
:1027bc0001fe40090900030047094a0906fe06000c
:1027cc00524553455400000004fe000044094109e1
:1027dc001200000001fe0000090003007609c50983
:1027ec0006fe160046554e4354494f4e3a4e444150
:1027fc00525241592d4158505900000006fe0c0010
:10280c00444546494e452d4c494e450006fe1200a6
:10281c00414c4c4f43415445442d4f424a4543543f
:10282c005300000006fe1700574954482d535550cd
:10283c00505245535345442d4552524f525300006c
:10284c000bfe61091d0903000bfeb0092309690386
:10285c000bfeb40929096a090bfeb8092f09700986
:10286c000bfec009350972090bfe3e093b097409c0
:10287c000bfe47094409780906fe040046435a003a
:10288c000bfe76094d0903000bfe0d0ac809320632
:10289c000bfed109ce097a090bfeda09d7097c099e
:1028ac0006fe0400434f53000bfe8009e009860925
:1028bc0006fe0400484558000bfe8409e609880909
:1028cc000bfe150aec0903000bfe190af2090300b2
:1028dc000bfe1e0af8098a090bfe010afe098c0977
:1028ec000bfe220a070a8e090bfe6f0a270a9009b3
:1028fc000bfe730a2d0a98090bfe360a330a1123b4
:10290c000bfe7b0a3c0a9a090bfe450a420a03009d
:10291c000bfe4e0a4b0a820006fe04004e54480081
:10292c000bfe9e09540a9c090bfe5d0a5a0aa0096b
:10293c000bfe810a630aa2090bfe860a690a0300d0
:10294c000bfed30a8b0aa6090bfed70a910a0300c9
:10295c000bfedb0a970aa52a0bfedf0a9d0ab04480
:10296c0006fe0b00535542434f4d504c455800004a
:10297c0006fe0c00434c4f534553545245414d00f9
:10298c0006fe1a0046554e4354494f4e3a4e4441aa
:10299c00525241592d535152542d4933320000009b
:1029ac0006fe0e005445585453545245414d504f59
:1029bc005300000004fe03004d094a0933010000d6
:1029cc0001fec009090003000d0acb0904fe010039
:1029dc00c809c5094702000001fec009090003002f
:1029ec00d109d40906fe05004154414e00000000f7
:1029fc0004fe0100ce09cb099301000001fec009c1
:102a0c0009000300da09dd0906fe08005459504597
:102a1c002d4f460004fe0100d709d4096b000000bd
:102a2c0001fee009090003008009e30904fe01002e
:102a3c00e009dd098f01000001fee0090900030037
:102a4c008409e90904fe0100e609e3091d010000ff
:102a5c0001fee00909000300150aef0904fe03005a
:102a6c00ec09e9092301000001fee009090003005b
:102a7c00190af50904fe0200f209ef094b020000e5
:102a8c0001fee009090003001e0afb0904fe010017
:102a9c00f809f5098b01000001fe000a090003008a
:102aac00010a040a06fe0500524e4f5700000000b2
:102abc0004fe0000fe09fb09dd00000001fe000a17
:102acc0009000300220a0a0a04fe0100070a040a8c
:102adc00e700000006fe1b0046554e4354494f4e7e
:102aec003a53414e4e2d524541442d5241572d4e95
:102afc004554000006fe0b00552d424954464945ed
:102b0c004c44000006fe0d0053454e534f52535497
:102b1c005245414d0000000006fe09005452554e2e
:102b2c00434154450000000006fe0f0047454e454a
:102b3c005241544f522d4f50454e000001fe200a79
:102b4c00090003006f0a2a0a04fe0200270a0a0a77
:102b5c002701000001fe200a09000300730a300a55
:102b6c0004fe01002d0a2a0a1c02000001fe200aa4
:102b7c0009000300360a390a06fe0600524f554e6c
:102b8c004400000004fe0100330a300a8a010000f0
:102b9c0001fe200a090003007b0a3f0a04fe010023
:102bac003c0a390a5b01000001fe400a09000300df
:102bbc00450a480a06fe08004652414d454e4f0054
:102bcc0004fe0000420a3f0af500000001fe400a24
:102bdc00090003004e0a510a06fe050053515254d7
:102bec000000000004fe01004b0a480abe00000071
:102bfc0001fe400a090003009e09570a04fe020068
:102c0c00540a510a5600000001fe400a0900030054
:102c1c005d0a600a06fe06004b574f544500000043
:102c2c0004fe01005a0a570a3600000001fe600a31
:102c3c0009000300810a660a04fe0100630a600aa7
:102c4c005601000001fe600a09000300860a6c0aa6
:102c5c0004fe0200690a660aec00000006fe090088
:102c6c0046524f4d2d4845580000000006fe1a00f4
:102c7c0046554e4354494f4e3a4e44415252415997
:102c8c002d535152542d49363400000006fe1200cb
:102c9c00444953504c415945442d53545245414d90
:102cac005000000006fe0e004d454d4f52592d555b
:102cbc00382d4e455700000006fe100053594d426a
:102ccc004f4c2d53455456414c55450001fe800a3e
:102cdc0009000300d30a8e0a04fe01008b0a6c0a59
:102cec000501000001fe800a09000300d70a940abe
:102cfc0004fe0200910a8e0aea01000001fe800a1d
:102d0c0009000300db0a9a0a04fe0100970a940ae0
:102d1c007e01000001fea00a09000300df0aa00ae0
:102d2c0004fe01009d0a9a0a7701000001fea00a28
:102d3c0009000300a60aa90a06fe0800544f5043d6
:102d4c00414c4c0004fe0100a30aa00af400000050
:102d5c0001fea00a090003002b0baf0a04fe0100c0
:102d6c00ac0aa90ad901000001fea00a090003005f
:102d7c002f0bb50a04fe0100b20aaf0af8000000de
:102d8c0001fea00a09000300340bbb0a04fe01007b
:102d9c00b80ab50a5101000001fec00a090003007f
:102dac00390bc10a04fe0200be0abb0a0102000074
:102dbc0001fec00a09000300400bc70a04fe020012
:102dcc00c40ac10a9e01000001fec00a09000300ea
:102ddc00440bcd0a04fe0200ca0ac70a73010000a4
:102dec0001fe000009000300480b4e0b06fe0a0012
:102dfc00444542554747494e4700000006fe0b002c
:102e0c0053554d434f4d504c4558000006fe0c0099
:102e1c0046494c452d4c454e4754480006fe09008a
:102e2c00524541442d4f4354000000000bfea60aae
:102e3c00a30aae090bfe2b0bac0ae70a0bfe2f0bf9
:102e4c00b20ae90a0bfe340bb80a03000bfe390b6d
:102e5c00be0a03000bfe400bc40a03000bfe440b1e
:102e6c00ca0aeb0a0bfe480bd00aed0a0bfe960bb6
:102e7c00510bef0a0bfe9b0b570b03000bfe630b66
:102e8c00600b03000bfe9f0b690b03000bfea30be7
:102e9c006f0bfd0a0bfea70b750b03000bfeaf0ba4
:102eac007b0b821f0bfeb40b810b192b0bfe8a0bb9
:102ebc00870b050b0bfeb90b900b070b0bfe090ccc
:102ecc00c10b030006fe0400434452000bfe090b29
:102edc00c70b03000bfe100ccd0b0b0b0bfe150cd4
:102eec00d30b0d0b0bfedc0bd90b41030bfe190c9a
:102efc00e20b150b0bfeeb0be80b03000bfe210c8e
:102f0c00f10b03000bfe260cf70b170b0bfe2b0c17
:102f1c00fd0b190b0bfe060c030c1f0b0bfe780c98
:102f2c00330c030006fe0400564147000bfe210b38
:102f3c00390c03000bfe800c3f0c03000bfe860cbf
:102f4c00450c03000bfe4e0c4b0c600006fe0c00f7
:102f5c004d414b452d4641525241590006fe0d0044
:102f6c004652414d45434f4e5445585400000000c5
:102f7c0006fe0f004d454d4f52592d4936342d4efe
:102f8c004557000006fe160046554e4354494f4e19
:102f9c003a4e4441525241592d565245460000007a
:102fac0006fe0b0054524143452d534c4f47000035
:102fbc0006fe0a00524541442d4c494e4500000086
:102fcc0006fe13005350454349414c2d564152497e
:102fdc0041424c452d50000004fe0100d00acd0aa0
:102fec007e00000001fe400b09000300960b540b01
:102ffc0004fe0300510b4e0b1001000001fe400bb0
:10300c00090003009b0b5a0b04fe0100570b540bd9
:10301c003501000004fefeffcc025a0ba400000098
:10302c0001fe600b09000300630b660b06fe050036
:10303c00434f4e530000000004fe0200600b5d0b7a
:10304c002000000001fe600b090003009f0b6c0bbd
:10305c0004fefeff690b660bd600000001fe600b40
:10306c0009000300a30b720b04fe01006f0b6c0b29
:10307c00eb00000001fe600b09000300a70b780bae
:10308c0004fe0300750b720b4f01000001fe600b78
:10309c0009000300af0b7e0b04fe01007b0b780bc9
:1030ac00d401000001fe800b09000300b40b840b5b
:1030bc0004fe0100810b7e0b5201000001fe800b0f
:1030cc00090003008a0b8d0b06fe0700434f4e438d
:1030dc004154000004feffff870b840b69000000c5
:1030ec0001fe800b09000300b90b930b04fe0300d7
:1030fc00900b8d0b4801000006fe0e0053544f52ee
:10310c004147452d545241434500000006fe09003d
:10311c0046435a53544154530000000006fe090024
:10312c004f4e2d4552524f520000000006fe090032
:10313c004b4559574f5244500000000006fe1900f1
:10314c0046554e4354494f4e3a4d454d4f52592dcd
:10315c004636342d534554460000000006fe0e0042
:10316c004e554d41525241592d53495a450000007c
:10317c0006fe0f004d454d4f52592d5533322d4ef5
:10318c004557000006fe190046554e4354494f4e14
:10319c003a4d454d4f52592d4936342d53455446d1
:1031ac000000000001fec00b09000300090cc40b59
:1031bc0004fe0200c10b930b6a01000001fec00b60
:1031cc0009000300090bca0b04fe0100c70bc40b5a
:1031dc002300000001fec00b09000300100cd00bf3
:1031ec0004fe0100cd0bca0b5401000001fec00b04
:1031fc0009000300150cd60b04fe0200d30bd00bf8
:10320c006c01000001fec00b09000300dc0bdf0b9e
:10321c0006fe0500434144520000000004fe01007c
:10322c00d90bd60b2500000001fee00b09000300b2
:10323c00190ce50b04fe0200e20bdf0b0702000089
:10324c0001fee00b09000300eb0bee0b06fe080081
:10325c00574f52444c454e0004fe0000e80be50b62
:10326c00d100000001fee00b09000300210cf40b5f
:10327c0004fe0100f10bee0bde00000001fee00b82
:10328c0009000300260cfa0b04fe0100f70bf40beb
:10329c00d700000001fe000c090003002b0c000cf1
:1032ac0004fe0200fd0bfa0b1301000001fe000ce2
:1032bc0009000300060c300c06fe06004352433393
:1032cc003200000006fe160053545245414d2d416c
:1032dc0054545249425554452d4152434800000024
:1032ec0006fe0f004d454d4f52592d5531362d4e82
:1032fc004557000006fe0b0053545245414d2d47d7
:10330c004554000006fe190046554e4354494f4e95
:10331c003a4e4441525241592d4d41542d4d554c2c
:10332c000000000006fe10005345542d54494d4535
:10333c002d4f46465345540006fe0f005245474953
:10334c00535445522d4552524f52000006fe0d006b
:10335c0054524143452d455850414e440000000005
:10336c0004fe0100030c000c1e00000001fe200cea
:10337c0009000300780c360c04fe0200330c300cf0
:10338c000f02000001fe200c09000300210b3c0c75
:10339c0004fe0100390c360cc500000001fe400c87
:1033ac0009000300800c420c04fe01003f0c3c0c95
:1033bc001e02000001fe400c09000300860c480ca4
:1033cc0004fe0300450c420c2402000001fe400cdc
:1033dc00090003004e0c510c06fe050045585054d4
:1033ec000000000004fe02004b0c480c8c01000095
:1033fc0001fe400c090003008b0c570c04fe01006d
:10340c00540c510c7b00000004fefeff2a00570cec
:10341c007400000001fe600c09000300d90c600c64
:10342c0004fe00005d0c5a0cf200000001fe600c62
:10343c0009000300dd0c660c04fe0200630c600c3a
:10344c000e02000001fe600c09000300e50c6c0c80
:10345c0004fe0000690c660c1800000001fe600cf4
:10346c0009000300720c750c06fe08004d41504813
:10347c004153480004fe03006f0c6c0cad000000bf
:10348c0006fe190046554e4354494f4e3a4e4441a0
:10349c00525241592d444f542d46333200000000f6
:1034ac0006fe120047454e455249432d46554e43a4
:1034bc0054494f4e5000000006fe0e005f43414c35
:1034cc004c46554e4354494f4e00000006fe120028
:1034dc00474c4f42414c2d5641524941424c452d8f
:1034ec00500000000bfe8b0c540c270b0bfed90c60
:1034fc005d0c290b0bfedd0c630c03000bfee50cc5
:10350c00690c03000bfe720c6f0c970c0bfe310d4b
:10351c00e90c950c0bfe350def0c9f0c0bfe390dc9
:10352c00f50ca10c0bfefe0cfb0c030006fe0400bc
:10353c00454c54000bfea30c040da70c0bfe0d0dfb
:10354c000a0da90c0bfe3d0d130dab0c0bfe450d1e
:10355c00190dad0c0bfe490d1f0d03000bfe280db4
:10356c00250db10c0bfe4d0d2e0db30c0bfe980d55
:10357c00530d03000bfe9c0d590d03000bfea10d0a
:10358c005f0d03000bfea70d650db70c0bfeab0d0d
:10359c006b0d03000bfeaf0d710dbb0c0bfeb30dd1
:1035ac00770dad210bfeb80d7d0dc30c0bfebd0dc3
:1035bc00830dc50c0bfec40d890d03000bfec90d4c
:1035cc008f0d03000bfece0d950d9e300bfe1c0ec9
:1035dc00d70dc90c0bfee00ddd0d31030bfe200edb
:1035ec00e60dd10c0bfe260eec0dd30c0bfe2a0ea9
:1035fc00f20dd50c0bfefb0df80d03000bfe300e7f
:10360c00010e3e0e06fe0c005448524f572d4c41f5
:10361c0042454c0006fe190046554e4354494f4e48
:10362c003a4e4441525241592d444f542d46363452
:10363c000000000006fe09004556414c4c4f4f500f
:10364c000000000001fee00c09000300310dec0c41
:10365c0004fe0200e90c750c7601000001fee00c82
:10366c0009000300350df20c04fe0200ef0cec0c0b
:10367c002d02000001fee00c09000300390df80cce
:10368c0004fe0100f50cf20cdd01000001fee00c63
:10369c0009000300fe0c010d06fe0500434f4e44cd
:1036ac000000000004fefefffb0cf80ca000000064
:1036bc0001fe000d09000300a30c070d04fe02001f
:1036cc00040d010d8900000001fe000d090003002e
:1036dc000d0d100d06fe080052454d50524f500076
:1036ec0004fe02000a0d070d8600000001fe000d0d
:1036fc00090003003d0d160d04fe0200130d100d04
:10370c00e600000001fe000d09000300450d1c0d34
:10371c0004fe0200190d160df100000001fe200d33
:10372c0009000300490d220d04fe02001f0d1c0da3
:10373c001b01000001fe200d09000300280d2b0dbc
:10374c0006fe0500474554460000000004fe02003a
:10375c00250d220d5200000001fe0000090003009f
:10376c004d0d500d06fe0c00524541442d4d454d5e
:10377c004f52590006fe0c00504f4c4c2d534552e5
:10378c0049414c0006fe0c00494e49542d4441520f
:10379c005241590006fe1c0047454e455241544fbc
:1037ac00522d5345542d535542534352495054496d
:1037bc004f4e530006fe0b004150504c5941525293
:1037cc004159000006fe0c0042494e4152592d56fb
:1037dc005245460006fe080053594d424f4c5000ce
:1037ec0004fe01002e0d2b0d3000000001fe400ddb
:1037fc0009000300980d560d04fe0200530d500de8
:10380c009000000001fe400d090003009c0d5c0db2
:10381c0004fe0200590d560d4000000001fe600d23
:10382c0009000300a10d620d04fe01005f0d5c0d8b
:10383c005a00000001fe600d09000300a70d680d81
:10384c0004fe0200650d620d0a01000001fe600d10
:10385c0009000300ab0d6e0d04fe01006b0d680d2d
:10386c004400000001fe600d09000300af0d740d53
:10387c0004fe0500710d6e0dea00000001fe600de6
:10388c0009000300b30d7a0d04fe0100770d740dd1
:10389c007f01000001fe800d09000300b80d800db2
:1038ac0004feffff7d0d7a0d2b02000001fe800d42
:1038bc0009000300bd0d860d04fe0100830d800d73
:1038cc00f601000001fe800d09000300c40d8c0df3
:1038dc0004fe0100890d860de100000001fe800d43
:1038ec0009000300c90d920d04fe01008f0d8c0d13
:1038fc005a01000001fe000009000300ce0dd40d9a
:10390c0006fe0b004d4b41444a41525241590000b6
:10391c0006fe0d0044454c4554452d464952535422
:10392c000000000006fe120052454d4f56452d4436
:10393c0055504c49434154455300000006fe0900c4
:10394c00535441434b544f500000000006fe0900f5
:10395c004e524556455253450000000006fe0b00e2
:10396c00524541442d544f4b454e000006fe0e006f
:10397c0046494c452d4558495354532d5000000091
:10398c0006fe0d004f50454e2d53455249414c30cb
:10399c000000000006fe170046554e4354494f4e9a
:1039ac003a4e4441525241592d5348415045000022
:1039bc0006fe0f00424c4f434b494e472d534c458e
:1039cc004550000006fe10005445585455414c2dee
:1039dc0053545245414d500006fe110046554e437e
:1039ec0054494f4e3a4e4441525241590000000046
:1039fc0004fe0300950d920dff01000001fec00da9
:103a0c00090003001c0eda0d04fefeffd70dd40dc9
:103a1c00a600000001fee00d09000300e00de30d1f
:103a2c0006fe07005355424c4953000004fe0200a9
:103a3c00dd0dda0d5e00000001fee00d0900030053
:103a4c00200ee90d04fe0100e60de30d9d000000c3
:103a5c0001fee00d09000300260eef0d04fe01002f
:103a6c00ec0de90d8400000001fee00d09000300df
:103a7c002a0ef50d04fe0200f20def0d7000000091
:103a8c0001fee00d09000300fb0dfe0d06fe070014
:103a9c0044454c455445000004fe0200f80df50d5c
:103aac003f00000001fe000e09000300300e040e62
:103abc0004fe0400010efe0df501000001fe000ed7
:103acc00090003003a0e0a0e04fe0100070e040e54
:103adc00f401000001fe000e09000300860e100e1a
:103aec0004fe02000d0e0a0ee401000001fe000ea1
:103afc00090003008c0e160e04fe0300130e100eac
:103b0c004a01000001fe000009000300940e9a0e09
:103b1c0006fe0a00494e542d5748494c45000000fa
:103b2c0006fe12005245434f52442d415454524903
:103b3c00425554455300000006fe0900554e494eaf
:103b4c005445524e0000000006fe12005345542d01
:103b5c00444f43554d454e544154494f4e0000007f
:103b6c0006fe1e0046554e4354494f4e3a4e4441b4
:103b7c00525241592d455854524143542d524543ac
:103b8c00540000000000000006fe0b0053544f5080
:103b9c002d54494d455200000bfe3a0e070e400eb7
:103bac000bfe860e0d0e03000bfe8c0e130e030087
:103bbc000bfe940e190e460e0bfea00e9d0e03006e
:103bcc000bfee20ea60e6e1f0bfeaf0eac0e480ed9
:103bdc000bfee60eb50e59260bfeea0ebb0e0300cd
:103bec000bfef10ec10e520e0bfeca0ec70e540e7a
:103bfc000bfef60ed00e03000bfed90ed60e3606bb
:103c0c000bfefa0edf0e560e0bfe470f020f5c0e6c
:103c1c000bfe4b0f080f03000bfe520f0e0f030091
:103c2c000bfe5a0f140f08240bfe5e0f1a0f462eb4
:103c3c000bfe660f200f03000bfe6a0f260f03000e
:103c4c000bfe2f0f2c0f660e06fe040054414e0087
:103c5c000bfe6a0e350f680e0bfe6f0f3b0f030049
:103c6c000bfe740f410f03000bfec00f780f740e88
:103c7c000bfec80f7e0f760e0bfecc0f840f0300cd
:103c8c000bfed00f8a0f03000bfe930f900f7c0ed0
:103c9c000bfe9c0f990f7e0e0bfed50fa20f03008f
:103cac000bfed90fa80f820e0bfeb10fae0f030047
:103cbc000bfe0910b70fe72106fe12004e412d43f3
:103ccc0053562d464c4f41542d5245414400000053
:103cdc0006fe190046554e4354494f4e3a4d454d3c
:103cec004f52592d4931362d534554460000000092
:103cfc0006fe13005f4d415046554e4354494f4efe
:103d0c002d4150504c59000004fe0300190e160ea4
:103d1c002502000001fea00e09000300a00ea30e58
:103d2c0006fe05004d4f56440000000004fe020044
:103d3c009d0e9a0e7600000001fea00e09000300f5
:103d4c00e20ea90e04fe0300a60ea30ee60100006f
:103d5c0001fea00e09000300af0eb20e06fe070016
:103d6c004d454d424552000004fe0200ac0ea90e1a
:103d7c004100000001fea00e09000300e60eb80e83
:103d8c0004fe0200b50eb20e3c01000001fea00eb6
:103d9c0009000300ea0ebe0e04fe0200bb0eb80eb4
:103dac004802000001fec00e09000300f10ec40e13
:103dbc0004fe0200c10ebe0e9a00000001fec00ef1
:103dcc0009000300ca0ecd0e06fe080054595045da
:103ddc002d49440004fe0100c70ec40e6c00000007
:103dec0001fec00e09000300f60ed30e04fe010006
:103dfc00d00ecd0e2001000001fec00e0900030004
:103e0c00d90edc0e06fe05004344445200000000af
:103e1c0004fe0100d60ed30e2700000001fe0000a8
:103e2c0009000300fa0eff0e06fe09004e412d5349
:103e3c004d4153480000000006fe0c004d454d4f0f
:103e4c0052592d565245460006fe170046554e4314
:103e5c0054494f4e3a53414e4e2d434c41535349c6
:103e6c004659000006fe0d004d414b452d52454371
:103e7c004f5244320000000006fe0b0048455832f9
:103e8c0042494e415259000006fe0e004352454134
:103e9c0054452d464f4c44455200000004fe010091
:103eac00df0edc0e8501000001fe000f090003008f
:103ebc00470f050f04fe0100020fff0e8d000000de
:103ecc0001fe000f090003004b0f0b0f04fe010055
:103edc00080f050fc800000001fe000f09000300c9
:103eec00520f110f04fe02000e0f0b0f11020000f7
:103efc0001fe000f090003005a0f170f04fe030008
:103f0c00140f110f6a00000001fe000f09000300de
:103f1c005e0f1d0f04fe03001a0f170f4d0100005a
:103f2c0001fe200f09000300660f230f04fe0200a0
:103f3c00200f1d0f7201000001fe200f090003006d
:103f4c006a0f290f04fe0100260f230f2c0200001c
:103f5c0001fe200f090003002f0f320f06fe050093
:103f6c00515549540000000004fe01002c0f290f8c
:103f7c001300000001fe200f090003006a0e380f29
:103f8c0004fe0100350f320f9001000001fe200fde
:103f9c00090003006f0f3e0f04fe02003b0f380fa9
:103fac00e901000001fe400f09000300740f440feb
:103fbc0004fe0100410f3e0f9c01000006fe0c00a8
:103fcc004152524159544f4c4953540006fe18006b
:103fdc0042554646455245442d5354414e44415258
:103fec00442d494e5055540006fe190046554e437b
:103ffc0054494f4e3a4e4441525241592d444f541c
:10400c002d4933320000000006fe0a00535542537e
:10401c005452494e4700000006fe190046554e43c7
:10402c0054494f4e3a4d454d4f52592d5531362d21
:10403c00534554460000000006fe0c0054595045f0
:10404c002d5245414445520006fe0d00434c4f5342
:10405c00452d53455249414c0000000006fe0d0011
:10406c004d414b452d434f4d504c455800000000e1
:10407c0006fe0c00534c4f47544f5043414c4c00e0
:10408c0001fe600f09000300c00f7b0f04fe02004d
:10409c00780f440f1002000001fe800f090003008e
:1040ac00c80f810f04fe03007e0f7b0f9f000000e2
:1040bc0001fe800f09000300cc0f870f04fe0100e6
:1040cc00840f810f6101000001fe800f09000300c5
:1040dc00d00f8d0f04fe02008a0f870f9a0100008b
:1040ec0001fe800f09000300930f960f06fe0500da
:1040fc00525054510000000004fefeff900f8d0f33
:10410c00a200000001fe800f090003009c0f9f0f0e
:10411c0006fe08005455504c452d500004fe01007d
:10412c00990f960f6f00000001fea00f090003000d
:10413c00d50fa50f04fe0000a20f9f0f1c0000005e
:10414c0001fea00f09000300d90fab0f04fe020003
:10415c00a80fa50f6700000001fea00f09000300c7
:10416c00b10fb40f06fe0700424f554e44500000ed
:10417c0004fe0200ae0fab0f1a00000001fea00ff0
:10418c00090003000910ba0f04fe0000b70fb40faa
:10419c00c900000004feffff1200ba0fb9000000b6
:1041ac0006fe190046554e4354494f4e3a4e444173
:1041bc00525241592d444f542d49363400000000c1
:1041cc0006fe0b005245434f52442d5055540000ef
:1041dc0006fe09004c494e452d4e554d0000000081
:1041ec0006fe0d005445535446554e4354494f4e0c
:1041fc000000000006fe0a00535441434b55534542
:10420c004400000006fe0c00535452494e472d52f8
:10421c00504f530007fe4000bf458943522e0040cb
:10422c002a4818481c43b2411e125b44f6455a3cbe
:10423c00e1073605ee32bf34e432c54528389f45d8
:10424c0033410f2a10487f1008484317f11bdd46f5
:10425c00f346553f143bf746cc3dda18091cd432d3
:10426c007e09cb430c4666423115d939a145d1465e
:10427c00cd275544063bb5010f178e259729233fb3
:10428c00f90abd39903f2d342046ef1bf11dae28a5
:10429c004b326920e411b026000000000000000041
:1042ac000000000000000000000000000000000002
:1042bc0000000000000000000000000000000000f2
:1042cc000000000006fe1300494e495449414c4978
:1042dc005a452d4f424a45435453000001fe0010ed
:1042ec00090003005710121004fe01000f10bd0f3f
:1042fc00fa00000001fe00100900030018101b104a
:10430c0006fe06005052494e3100000004fe020029
:10431c00151012105c01000001fe201009000300b2
:10432c00a310211004fe01001e101b102902000016
:10433c0001fe201009000300a910271004fe010043
:10434c00241021103200000001fe2010090003008f
:10435c00ad102d1004fe01002a102710d50000000e
:10436c0001fe2010090003003310361006fe070072
:10437c00415252415950000004fe010030102d10e2
:10438c008b00000001fe20100900030067103c1098
:10439c0004fe0100391036102d00000001fe401003
:1043ac00090003004210451006fe06004249542d38
:1043bc002600000004fe02003f103c102f010000fc
:1043cc0001fe401009000300b2104b1004fe030064
:1043dc00481045103d01000001fe4010090003008b
:1043ec005110541006fe0700564543544f5200001e
:1043fc0004feffff4e104b108e00000006fe0a005c
:10440c004e4558544652414d450000000bfe571086
:10441c000f107d210bfe1810151056000bfea3106b
:10442c001e1061100bfea910241003000bfead1022
:10443c002a1065100bfe33103010030006fe04002a
:10444c004e4f54000bfe67103910c9010bfe421081
:10445c003f1003000bfeb21048106b100bfe5110f6
:10446c004e1003000bfebc10b9106f100bfe0111a7
:10447c00c210f7010bfe0511c81073100bfed11002
:10448c00ce1079100bfe0c11d710030006fe0400a1
:10449c00434152000bfe7b10dd1003000bfee610b7
:1044ac00e31081100bfeef10ec1083100bfe1111ba
:1044bc00f51085100bfefe10fb1003000bfe5e11b9
:1044cc00191189100bfe63111f118b100bfe671154
:1044dc0025118d100bfe6b112b1103000bfe3411eb
:1044ec00311103000bfe6f113a118f100bfe74117a
:1044fc00401191100bfe7a1146115e1f0bfe8011bc
:10450c004c1103000bfe5511521197100bfe861126
:10451c005b11f12c0bfed3118e1103000bfe9711c6
:10452c009411a1100bfed9119d11e21106fe110080
:10453c0054524143452d53455249414c2d48455801
:10454c000000000006fe09004d4b53594d424f4ce4
:10455c000000000006fe0d004552524f524d4553cf
:10456c00534147450000000006fe180046554e43d7
:10457c0054494f4e3a4d454d4f52592d55382d53a8
:10458c004554460001fea01009000300bc10bf10ea
:10459c0006fe070052504c414341000004fe02004d
:1045ac00b91054103c00000001fec01009000300bb
:1045bc000111c51004fe0100c210bf10d80100008b
:1045cc0001fec010090003000511cb1004fe05000c
:1045dc00c810c5100402000001fec0100900030041
:1045ec00d110d41006fe06005448524f570000005c
:1045fc0004fe0200ce10cb101500000001fec0100e
:10460c00090003000c11da1004fe0100d710d410bd
:10461c00c801000001fee010090003007b10e0104f
:10462c0004fe0100dd10da102200000001fee01093
:10463c0009000300e610e91006fe08004d4b41523c
:10464c005241590004fe0300e310e0108f000000fb
:10465c0001fee01009000300ef10f21006fe050049
:10466c00434141520000000004fe0100ec10e9102f
:10467c002400000001fee010090003001111f810e5
:10468c0004fe0400f510f2102401000001fee010fd
:10469c0009000300fe10161106fe0600454f462dbc
:1046ac005000000006fe0c004d414b452d49415277
:1046bc005241590006fe150046554e4354494f4e83
:1046cc003a4e4441525241592d53554d0000000071
:1046dc0006fe0e0046554e4354494f4e3a534f4d2d
:1046ec004500000006fe0e00532d42495446494534
:1046fc004c442d424500000004fe0100fb10f81054
:10470c007401000001fe0011090003005e111c1170
:10471c0004fe0200191116119500000001fe201173
:10472c00090003006311221104fe01001f111c116a
:10473c005100000001fe201109000300671128112f
:10474c0004fe010025112211f900000001fe2011c8
:10475c00090003006b112e1104fe01002b1128110e
:10476c00fa01000001fe2011090003003411371179
:10477c0006fe0600534c45455000000004fe0100a7
:10478c0031112e11e000000001fe20110900030080
:10479c006f113d1104fe00003a113711d2000000d8
:1047ac0001fe4011090003007411431104fe0200c4
:1047bc0040113d11e301000001fe4011090003000e
:1047cc007a11491104fe0100461143113102000017
:1047dc0001fe40110900030080114f1104fe01007d
:1047ec004c114911e300000001fe401109000300c7
:1047fc005511581106fe050045584954000000009b
:10480c0004fe000052114f111400000001fe0000c4
:10481c000900030086118b1106fe0d00564543540a
:10482c004f522d494e4445580000000006fe0a0028
:10483c00434f50592d5452454500000006fe0b00c5
:10484c005052494e544652414d45000006fe0c0054
:10485c00464f524d41542d545950450006fe0f0001
:10486c0050524f434553534f522d494e464f000023
:10487c0006fe13004e412d4353562d444f55424cca
:10488c00452d52454144000006fe11005345524946
:10489c00414c2d494e544552525550540000000085
:1048ac0006fe130047454e455241544f522d465576
:1048bc004e4354494f4e000006fe0f0048494748ee
:1048cc002d57415445524d41524b000004fe0000ff
:1048dc005b115811c600000001fe80110900030095
:1048ec00d311911104fe01008e118b1149020000ad
:1048fc0001fe80110900030097119a1106fe0800b1
:10490c00505554484153480004fe03009411911132
:10491c00aa00000001fea01109000300d911a0118a
:10492c0004fe02009d119a110701000001fea01166
:10493c0009000300dd11a61104fe0200a311a01151
:10494c002602000001fea011090003002a12ac117e
:10495c0004fe0000a911a611f600000001fea01132
:10496c0009000300e611b21104fe0100af11ac11f5
:10497c00c400000001fea01109000300b811bb1116
:10498c0006fe0600434144445200000004fe0100b0
:10499c00b511b2112800000001fec011090003007e
:1049ac002e12c11104fe0300be11bb1179010000cf
:1049bc0001fec01109000300c711ca1106fe050053
:1049cc004c4f41440000000004fe0200c411c11110
:1049dc007b01000001fec011090003003212d0114e
:1049ec0004fe0100cd11ca11e701000006fe1400ff
:1049fc0046554e4354494f4e3a564543324d41521b
:104a0c005241590006fe0a0044554d504259544536
:104a1c005300000006fe10004d41505354524541c6
:104a2c004d2d4150504c59000bfedd11a3110300cc
:104a3c000bfe2a12a911e81106fe04004c4f43008c
:104a4c000bfee611af11ea110bfeb811b511ec110a
:104a5c000bfe2e12be1103000bfec711c411030076
:104a6c000bfe3212cd11f2110bfe7f123712030026
:104a7c000bfe40123d1222240bfe83124612030041
:104a8c000bfe4f124c12f6110bfe88125512f81138
:104a9c000bfe8d125b12761f0bfe91126112bb0185
:104aac000bfe98126712fe1106fe04004e455100d3
:104abc000bfe02126d1203000bfe76127312030032
:104acc000bfe9d127c1203000bfeea12a5120300d2
:104adc000bfeef12ab120e120bfef712b1121012ec
:104aec000bfefe12b71212120bfec012bd121412e4
:104afc000bfec912c61216120bfe0413cf120300c2
:104b0c000bfe0813d51244050bfede12db12181235
:104b1c000bfe0c13e4121a120bfe5a1312131c1276
:104b2c000bfe1b13181322120bfe24132113241239
:104b3c000bfe5e132a1303000bfe62133013aa3f05
:104b4c000bfe66133613740006fe0900544f5046d4
:104b5c0052414d450000000006fe0b004f50454ee3
:104b6c0053545245414d000006fe0e004e412d455a
:104b7c004e554d2d524553455400000001fe201258
:104b8c00090003007f123a1204fe00003712d01104
:104b9c000f01000001fe40120900030040124312f5
:104bac0006fe0700524546434e54000004fe010029
:104bbc003d123a121501000001fe401209000300db
:104bcc008312491204fefeff461243127f000000be
:104bdc0001fe4012090003004f12521206fe07009c
:104bec004c454e475448000004fe01004c1249123b
:104bfc004800000001fe4012090003008812581200
:104c0c0004fe010055125212ce00000001fe4012ab
:104c1c00090003008d125e1204fe02005b12581292
:104c2c00df01000001fe6012090003009112641202
:104c3c0004fe010061125e121b00000001fe6012f6
:104c4c000900030098126a1204fefeff6712641238
:104c5c00a100000001fe6012090003000212701294
:104c6c0004fe02006d126a122c00000001fe60129c
:104c7c00090003007612791206fe080047455448d5
:104c8c004153480004fe020073127012ab00000086
:104c9c0001fe0000090003009d12a21206fe0c008a
:104cac00434845434b2d535441434b0006fe0d00e6
:104cbc00504f502d5641524941424c450000000086
:104ccc0006fe0e005345542d415554484f5249543d
:104cdc005900000006fe0c00494e49542d43415228
:104cec005241590006fe170041524954592d4f4666
:104cfc002d4c4953502d46554e4354494f4e0000b0
:104d0c0006fe0f00554e57494e442d50524f5445f8
:104d1c004354000006fe1000554e524541442d43ad
:104d2c00484152434f44450004fe02007c12791264
:104d3c006601000001fea01209000300ea12a8128d
:104d4c0004fe0100a512a212de01000001fea01259
:104d5c0009000300ef12ae1204fe0100ab12a81200
:104d6c001702000001fea01209000300f712b41292
:104d7c0004fe0200b112ae124301000001fea012ab
:104d8c0009000300fe12ba1204fe0200b712b4129c
:104d9c001401000001fec01209000300c012c3126e
:104dac0006fe0800535452494e47500004fe0100c1
:104dbc00bd12ba126500000001fec012090003000a
:104dcc00c912cc1206fe0800434f4d50415245000b
:104ddc0004fe0200c612c3123700000001fec0120e
:104dec00090003000413d21204fe0100cf12cc12ee
:104dfc000301000001fec012090003000813d812c1
:104e0c0004fe0100d512d2123201000001fec012c4
:104e1c0009000300de12e11206fe06004249542d81
:104e2c007c00000004fe0200db12d8122e010000f0
:104e3c0001fee012090003000c13e71204fe01004e
:104e4c00e412e1129200000006fe0d00494e495496
:104e5c002d434341525241590000000006fe1c00f4
:104e6c0046554e4354494f4e3a4e44415252415985
:104e7c002d5351554152452d4633320006fe180034
:104e8c0046554e4354494f4e3a4d454d4f52592d70
:104e9c0049382d565245460006fe110049532d4304
:104eac00495243554c41522d4c495354000000007b
:104ebc0006fe09005349472d545241500000000092
:104ecc0006fe0c004249542d52455645525345009e
:104edc0006fe130041444a55535441424c452d4162
:104eec00525241592d50000001fe001309000300dd
:104efc005a13151304fe01001213e712fb000000f5
:104f0c0001fe0013090003001b131e1306fe08000c
:104f1c004e412d534554410004fe03001813151344
:104f2c00e201000001fe20130900030024132713e3
:104f3c0006fe0600554e494f4e00000004fe0200ce
:104f4c0021131e134700000001fe2013090003006b
:104f5c005e132d1304fe02002a132713d900000040
:104f6c0001fe2013090003006213331304fe020038
:104f7c0030132d134600000001fe2013090003001e
:104f8c006613391304fe01003613331313020000a9
:104f9c0001fe2013090003006e133f1304fe0200f0
:104fac003c1339137001000001fe4013090003008b
:104fbc007613451304feffff42133f13b8000000a5
:104fcc0001fe401309000300bc134b1304fe010047
:104fdc00481345131602000001fe4013090003009c
:104fec00c413511304fe01004e134b13e5000000d3
:104ffc0001fe401309000300cb13571304fe0100fc
:10500c00541351135101000006fe0a00505245562c
:10501c004652414d4500000006fe090053595345c8
:10502c0052524f520000000006fe0a0052454d4fee
:10503c0056452d494600000006fe190046554e43c4
:10504c0054494f4e3a4e4441525241592d53554dad
:10505c002d4633320000000006fe11005445585412
:10506c0053545245414d42554646455200000000ae
:10507c000bfe6e133c13400506fe02002b000000d5
:10508c000bfe7613421328120bfebc1348130300bd
:10509c000bfec4134e1303000bfecb1354138013df
:1050ac000bfe1814d01303000bfe1c14d613841320
:1050bc000bfe2114dc1386130bfe2514e2130300e4
:1050cc000bfe2914e81303000bfe3114ee138813a6
:1050dc000bfef713f4138a130bfe3814fd138c1309
:1050ec000bfe0614031403000bfe3c140c140300fb
:1050fc000bfe1514121496130bfe891444140300a2
:10510c000bfe8e144a149a130bfe531450149c135a
:10511c000bfe931459149e130bfe97145f14a013db
:10512c000bfe68146514a2130bfe71146e140300ad
:10513c000bfe9b147714a6130bfe9f147d14aa135d
:10514c0006fe0300494e00000bfea8138314ac139b
:10515c000bfeec14a41403000bfead14aa140300f4
:10516c000bfef114b314ae130bfebc14b914b41330
:10517c000bfef514c21403000bfef914c8146805d9
:10518c000bfed114ce1403000bfefd14d714e10159
:10519c0006fe1c0046554e4354494f4e3a4e444170
:1051ac00525241592d5351554152452d46363400da
:1051bc0006fe180047454e455241544f522d53554b
:1051cc0042534352495054494f4e530006fe0f0070
:1051dc004d454d4f52592d4636342d4e45570000f6
:1051ec0001fec013090003001814d31304fe0100c0
:1051fc00d01357131a01000001fec013090003005d
:10520c001c14d91304fe0300d613d3136e01000033
:10521c0001fec013090003002114df1304fe01007a
:10522c00dc13d9133800000001fee0130900030061
:10523c002514e51304fe0300e213df13c300000082
:10524c0001fee013090003002914eb1304fe010016
:10525c00e813e5131202000001fee013090003003d
:10526c003114f11304fe0300ee13eb1300020000e3
:10527c0001fee01309000300f713fa1306fe050004
:10528c00434558500000000004fe0100f413f113d4
:10529c00f101000001fe0014090003003814001491
:1052ac0004fe0200fd13fa13a401000001fe001419
:1052bc00090003000614091406fe050041544f4d65
:1052cc000000000004fe0100031400142f00000075
:1052dc0001fe0014090003003c140f1404fe01002d
:1052ec000c1409141900000001fe0014090003003d
:1052fc001514411406fe070041444a4f494e000064
:10530c0006fe0c0042494e4152592d53495a450054
:10531c0006fe0f004d414b455445585453545245cd
:10532c00414d000006fe09004d4b535452494e4767
:10533c000000000006fe09004150504c59454e56e5
:10534c000000000006fe190046554e4354494f4ece
:10535c003a4e4441525241592d53554d2d463634f7
:10536c000000000006fe160046554e4354494f4eb1
:10537c003a4e4441525241592d5345544600000077
:10538c0006fe090050524f4343414c4c00000000b4
:10539c0006fe0d0053595354454d2d54525553543c
:1053ac000000000004fe020012140f14550000004f
:1053bc0001fe4014090003008914471404fe010087
:1053cc00441441140f00000001fe401409000300b6
:1053dc008e144d1404fe01004a144714db01000026
:1053ec0001fe4014090003005314561406fe070076
:1053fc00544552505249000004fe010050144d1403
:10540c005f01000001fe40140900030093145c14ba
:10541c0004fe0200591456146600000001fe6014cc
:10542c00090003009714621404fe01005f145c145d
:10543c006200000001fe60140900030068146b1484
:10544c0006fe0800535542504149520004fe030029
:10545c00651462145f00000001fe60140900030073
:10546c007114741406fe0600464c4f4154000000a3
:10547c0004fe01006e146b14b300000001fe6014f6
:10548c00090003009b147a1404fe020077147414b0
:10549c002e02000001fe8014090003009f148014ea
:1054ac0004fe02007d147a149300000001fe8014a7
:1054bc0009000300a813861404fe02008314801450
:1054cc005c00000006fe10004d4143524f2d465526
:1054dc004e4354494f4e500006fe0d0044494d2d8d
:1054ec004e554d41525241590000000006fe0b0032
:1054fc00535452494e472d504f53000006fe09009d
:10550c00494e542d434841520000000006fe0b004a
:10551c0053455249414c2d445452000006fe0d0097
:10552c0041444a5553542d415252415900000000f8
:10553c0001fea01409000300ec14a71404fe0100e2
:10554c00a41486141e00000001fea0140900030020
:10555c00ad14b01406fe07004445465641520000f7
:10556c0004fefeffaa14a7147700000001fea0148d
:10557c0009000300f114b61404fe0100b314b014b6
:10558c002901000001fea01409000300bc14bf1483
:10559c0006fe08004e554d424552500004fe0100d7
:1055ac00b914b614b000000001fec01409000300c9
:1055bc00f514c51404fefeffc214bf1479000000dc
:1055cc0001fec01409000300f914cb1404fe0300ff
:1055dc00c814c514f201000001fec0140900030038
:1055ec00d114d41406fe05004344415200000000bf
:1055fc0004fe0100ce14cb142600000001fec014e2
:10560c0009000300fd14da1404fe0000d714d414ae
:10561c002702000001fee014090003000115e0144c
:10562c0004fe0200dd14da14b600000001fee014e2
:10563c0009000300e614e91406fe05004e554c4c17
:10564c000000000004fe0100e314e0142d00000033
:10565c0006fe0f00434f4d50494c45522d545241bc
:10566c004345000006fe0a0041532d535452494e47
:10567c004700000006fe0c00444546434f4e535471
:10568c00414e540006fe0a005345542d54494d45d5
:10569c005200000006fe0a004c4953542d434f4d56
:1056ac005300000006fe03003e3d00000bfe0115fa
:1056bc00dd14ba130bfee614e31403000bfe911574
:1056cc0049150b150bfe96154f15621f0bfea015f9
:1056dc00551503000bfea6155b1503000bfeaa1552
:1056ec00611550050bfeaf1567150f150bfeb315a5
:1056fc006d1511150bfeb7157315ef010bfe7c150f
:10570c00791515150bfec115851517150bfe8e1584
:10571c008b1503000bfe0d16c81503000bfe12169d
:10572c00ce151d150bfe1616d41523150bfe1b16c8
:10573c00da1503000bfe1f16e01527150bfe2516b8
:10574c00e61529150bfe2a16ec159d200bfef515fa
:10575c00f2152d150bfefe15fb1503000bfe2f1677
:10576c00041603000bfe33160a1665030bfe801697
:10577c003e1635150bfe8816441637150bfe8f1684
:10578c004a1639150bfe941650163b150bfe99163e
:10579c0056163d150bfe9d165c163f150bfe651639
:1057ac00621603000bfe71166e16d1200bfea116ad
:1057bc0077162f030bfea5167d1643150bfef2165e
:1057cc00ad16ff1601fe40150900030091154c158e
:1057dc0004fe01004915e9142802000001fe4015e1
:1057ec00090003009615521504fe02004f154c15c6
:1057fc000d02000001fe401509000300a01558150c
:10580c0004fe0100551552151201000001fe401551
:10581c0009000300a6155e1504fe01005b15581562
:10582c00b100000001fe601509000300aa15641503
:10583c0004fe010061155e158101000001fe60157a
:10584c0009000300af156a1504fe01006715641505
:10585c008001000001fe601509000300b3157015ee
:10586c0004fe01006d156a157801000001fe60153b
:10587c0009000300b715761504fe020073157015a8
:10588c000c02000001fe6015090003007c157f1559
:10589c0006fe07004e412d454c54000004fe02004c
:1058ac0079157615e101000004fefeffcf027f158d
:1058bc00a300000001fe801509000300c115881526
:1058cc0004fe0100851582153901000001fe8015ca
:1058dc00090003008e15c51506fe07004e434f4efa
:1058ec004331000006fe0d0054524143452d5345f3
:1058fc005249414c0000000006fe1d0046554e4327
:10590c0054494f4e3a4e4441525241592d454c4503
:10591c004d4449562d463332000000000000000073
:10592c0006fe12004d41502d53544f524147452d08
:10593c00545241434500000006fe0900494e5445af
:10594c00474552500000000006fe0e0052454144ef
:10595c002d46494c452d52415700000006fe0c00c7
:10596c0044454c4554452d46494c450006fe09001e
:10597c0046554c4c504154480000000006fe1d009a
:10598c0046554e4354494f4e3a4e4441525241595a
:10599c002d454c454d4449562d46363400000000eb
:1059ac000000000006fe0c004d454d4f52592d5382
:1059bc00495a450004fe02008b1588154d00000065
:1059cc0001fec015090003000d16cb1504fe0000e6
:1059dc00c815c515d000000001fec0150900030054
:1059ec001216d11504fe0300ce15cb1522010000b2
:1059fc0001fec015090003001616d71504fe03009e
:105a0c00d415d1155900000001fec0150900030082
:105a1c001b16dd1504fe0300da15d7151c0100005a
:105a2c0001fee015090003001f16e31504fe040037
:105a3c00e015dd159801000001fee01509000300da
:105a4c002516e91504fe0100e615e3150e0000000d
:105a5c0001fee015090003002a16ef1504fe0200f2
:105a6c00ec15e915db00000001fee0150900030050
:105a7c00f515f81506fe0700464c4f415450000032
:105a8c0004fe0100f215ef15b200000001fee01556
:105a9c0009000300fe15011606fe060050524f4782
:105aac004e00000004fefefffb15f815a7000000d9
:105abc0001fe0016090003002f16071604fe010054
